:100000000C9434000C9446000C9446000C9446006A
:100010000C9446000C9446000C9446000C94460048
:100020000C9446000C9446000C9446000C94460038
:100030000C9446000C9446000C9446000C94460028
:100040000C9404010C9446000C9446000C94460059
:100050000C9446000C9446000C9446000C94460008
:100060000C9446000C94460011241FBECFEFD8E03C
:10007000DEBFCDBF21E0A0E0B1E001C01D92A23003
:10008000B207E1F70E9480000C945B010C94000021
:1000900080E480937C0087E880937A000895CF9372
:1000A000DF9300D0CDB7DEB78F70806480937C0083
:1000B0001A82198205C089819A8101969A8389835F
:1000C00089819A8184369105B4F3EAE7F0E0808172
:1000D0008064808380917A0086FDFCCFEAE7F0E0BF
:1000E00080818064808380917A0086FDFCCF80913E
:1000F0007800909179000F900F90DF91CF91089543
:100100000E94B7000E94E3000E94F7000E9448008E
:1001100080E00E944F008C0181E00E944F00EC01C2
:1001200082E00E944F007C01CE01969587959695BE
:1001300087950E94F4009701A4EBB0E00E944C0167
:100140002FEF33E040E050E00E942A01C9010E94F5
:10015000D1009801ADECBCEC0E944C0196958795BE
:1001600096958795969587950E940101D1CF84B188
:10017000866084B982EA809380008AE1809381005E
:100180008FE39CE9909387008093860088EB9BE047
:10019000909389008093880090938B0080938A00CD
:1001A00008959C01A0E6B9E00E944C0124EB30E0E8
:1001B00040E050E00E942A01285F384F30938900C8
:1001C0002093880008958AB188608AB984B18860D4
:1001D00084B983EA8093B00084E08093B1001092E8
:1001E000B3001092B40008958093B30008958AB1CB
:1001F00080628AB914BC81E085BD80936E007894DA
:1002000008958093010108951F920F920FB60F92E7
:1002100011248F939F93809100018F5F8093000141
:1002200080910001843610F010920001909100013D
:1002300080910101981720F48BB180628BB903C0C3
:100240008BB18F7D8BB99F918F910F900FBE0F90C7
:100250001F901895A1E21A2EAA1BBB1BFD010DC011
:10026000AA1FBB1FEE1FFF1FA217B307E407F50766
:1002700020F0A21BB30BE40BF50B661F771F881F42
:10028000991F1A9469F760957095809590959B01D8
:10029000AC01BD01CF010895A29FB001B39FC00181
:1002A000A39F700D811D1124911DB29F700D811DA2
:0A02B0001124911D0895F894FFCF6A
:00000001FF
