:100000000C9434000C943E000C943E000C943E0082
:100010000C943E000C943E000C943E000C943E0068
:100020000C943E000C943E000C943E000C943E0058
:100030000C943E000C943E000C943E000C943E0048
:100040000C943E000C943E000C943E000C943E0038
:100050000C943E000C943E000C943E000C943E0028
:100060000C943E000C943E0011241FBECFEFD8E04C
:10007000DEBFCDBF0E9478000C940D010C940000EF
:1000800080E480937C0087E880937A000895CF9382
:10009000DF9300D0CDB7DEB78F70806480937C0093
:1000A0001A82198205C089819A8101969A8389836F
:1000B00089819A8184369105B4F3EAE7F0E0808182
:1000C0008064808380917A0086FDFCCFEAE7F0E0CF
:1000D00080818064808380917A0086FDFCCF80914E
:1000E0007800909179000F900F90DF91CF91089553
:1000F0000E949C000E94C8000E94400081E00E9473
:100100004700EC0182E00E9447008C01CE019695E9
:100110008795969587950E94D9009801A4EBB0E049
:100120000E94FE002FEF33E040E050E00E94DC0030
:10013000C9010E94B600E2CF84B1866084B982EA28
:10014000809380008AE1809381008FE39CE9909303
:1001500087008093860088EB9BE0909389008093D2
:10016000880090938B0080938A0008959C01A0E6FC
:10017000B9E00E94FE0024EB30E040E050E00E9435
:10018000DC00285F384F3093890020938800089561
:100190008AB188608AB984B1886084B983EA80931F
:1001A000B00084E08093B1001092B3001092B400CC
:1001B00008958093B3000895A1E21A2EAA1BBB1BD9
:1001C000FD010DC0AA1FBB1FEE1FFF1FA217B30723
:1001D000E407F50720F0A21BB30BE40BF50B661F39
:1001E000771F881F991F1A9469F7609570958095FD
:1001F00090959B01AC01BD01CF010895A29FB00174
:10020000B39FC001A39F700D811D1124911DB29F4A
:0E021000700D811D1124911D0895F894FFCFEB
:00000001FF
